{
  "contractName": "madhu",
  "abi": [
    {
      "constant": false,
      "inputs": [
        {
          "internalType": "uint256",
          "name": "m",
          "type": "uint256"
        }
      ],
      "name": "insertSensorValue",
      "outputs": [],
      "payable": false,
      "stateMutability": "nonpayable",
      "type": "function"
    },
    {
      "constant": true,
      "inputs": [],
      "name": "getLastSensorValue",
      "outputs": [
        {
          "internalType": "uint256",
          "name": "",
          "type": "uint256"
        }
      ],
      "payable": false,
      "stateMutability": "view",
      "type": "function"
    }
  ],
  "bytecode": "0x608060405234801561001057600080fd5b50610107806100206000396000f3fe6080604052348015600f57600080fd5b506004361060325760003560e01c80630a10dd30146037578063cee3d205146062575b600080fd5b606060048036036020811015604b57600080fd5b8101908080359060200190929190505050607e565b005b606860ad565b6040518082815260200191505060405180910390f35b600081908060018154018082558091505090600182039060005260206000200160009091929091909150555050565b6000806001600080549050038154811060c257fe5b906000526020600020015490509056fea265627a7a723158206d4682f4433f7b1265a677bfde4a5e2784c968c2f4859975cb234e730139537364736f6c63430005100032",
  "source": "\npragma solidity 0.5.16;\n\ncontract madhu {\n\n\tuint[] a;\n\n\tfunction insertSensorValue(uint m) public {\n\t\ta.push(m);\n\t}\n\n\tfunction getLastSensorValue() public view returns(uint) {\n\t\treturn(a[a.length-1]);\n\t}\n}\n",
  "sourcePath": "/home/mad/ganache-urcet-python/contracts/madhu.sol",
  "compiler": {
    "name": "solc",
    "version": "0.5.16+commit.9c3226ce.Emscripten.clang"
  },
  "schemaVersion": "3.4.1",
  "updatedAt": "2021-05-21T09:58:41.292Z",
  "networkType": "ethereum",
  "devdoc": {
    "methods": {}
  },
  "userdoc": {
    "methods": {}
  }
}